:020000040800F2
:10000000600600206D010008990500082D02000817
:100010009505000827020008C50700080000000039
:10002000000000000000000000000000750600084D
:100030002B020008000000009B0500086107000873
:100040008701000887010008870100088701000870
:100050008701000887010008870100088701000860
:100060008701000887010008870100088701000850
:100070008701000887010008870100088701000840
:100080008701000887010008870100088701000830
:100090008701000887010008870100088701000820
:1000A0008701000887010008870100088701000810
:1000B0008701000887010008870100088701000800
:1000C00087010008870100088701000887010008F0
:1000D00087010008870100088701000887010008E0
:1000E00087010008870100088701000800F002F876
:1000F00000F02CF80AA090E8000C82448344AAF196
:100100000107DA4501D100F021F8AFF2090EBAE893
:100110000F0013F0010F18BFFB1A43F0010318473B
:10012000B80B0000C80B00000023002400250026A7
:10013000103A28BF78C1FBD8520728BF30C148BF4A
:100140000B6070471FB51FBD10B510BD00F031F832
:100150001146FFF7F7FF00F037FB00F04FF803B44C
:10016000FFF7F2FF03BC00F057F800000948804792
:1001700009480047FEE7FEE7FEE7FEE7FEE7FEE789
:10018000FEE7FEE7FEE7FEE704480549054A064BA1
:100190007047000065070008ED00000860000020BF
:1001A0006006002060020020600200207047704757
:1001B0007047754600F02CF8AE4605006946534678
:1001C00020F00700854618B020B5FFF7DDFFBDE839
:1001D00020404FF000064FF000074FF000084FF0AE
:1001E000000B21F00701AC46ACE8C009ACE8C0093F
:1001F000ACE8C009ACE8C0098D46704710B50446AC
:10020000AFF300802046BDE81040FFF7A8BF000014
:10021000004870470000002001491820ABBEFEE7EF
:1002200026000200704700BFFEE7704700BFFEE7F0
:100230001E48806940F009001C4988610846C06971
:1002400040F40010C8611A48006820F07F40184947
:1002500008600846006840F03B4008601548406868
:1002600020F00200134948601348008820F0010084
:10027000114908800846008840F40040088008467C
:10028000008820F4004008802420091D0880B42044
:1002900009491C3108802520091D0880064800886E
:1002A00040F001000449088070470000001002403F
:1002B000000C0140000001400054004038B50346E6
:1002C000012404EB4304E0B2012A45D100BF8A4C6B
:1002D000248804F00204002CF9D1874C183C2488AF
:1002E00024F48064844D183D2C802C46248844F4EA
:1002F00080742C8000BF804C241F248804F00104EB
:10030000002CF8D07C4C241F24887B4C083C208097
:1003100000BF794C241F248804F00204002CF8D07C
:10032000754C241F24880094734C24880094724CCC
:10033000183C248844F400746F4D183D2C8000BF95
:100340006D4C241F248804F04004002CF8D06A4C23
:10035000083C24880C7038BD022A53D100BF664C7B
:10036000248804F00204002CF9D1634C183C248842
:1003700024F48064604D183D2C802C46248844F47D
:1003800000642C802C46248844F480742C8000BFA8
:10039000594C241F248804F00104002CF8D0564C3A
:1003A000241F2488544C083C208000BF524C241F3A
:1003B000248804F00204002CF8D04F4C241F248819
:1003C00000944D4C2488009400BF4B4C241F24887B
:1003D00004F00404002CF8D0474C183C248844F462
:1003E0000074454D183D2C80434C083C24880C700B
:1003F000414C083C24884C702C46248824F400642A
:100400002C80A8E700BF3C4C248804F00204002C98
:10041000F9D1394C183C248844F48064364D183D99
:100420002C802C46248844F480742C8000BF324CED
:10043000241F248804F00104002CF8D02E4C241F23
:1004400024882D4C083C208000BF2B4C241F24887E
:1004500004F00204002CF8D0274C241F24880094B8
:10046000254C248800940EE000BF234C241F2488D0
:1004700004F04004002CF8D01F4C083C248801F8FC
:10048000014B541EA2B2032AEEDC00BF1A4C241FFB
:10049000248804F00404002CF8D0174C183C24885D
:1004A00024F48064144D183D2C80134C083C24889F
:1004B00001F8014B2C46248844F400742C8000BFC2
:1004C0000D4C241F248804F04004002CF8D00A4C62
:1004D000083C248801F8014B00BF074C241F2488E6
:1004E00004F04004002CF8D0034C083C248801F8A8
:1004F000014B00BF2FE700001854004000BF244A02
:10050000128802F00202002AF9D1214A183A128810
:1005100042F480721E4B183B1A8000BF1C4A121F07
:10052000128802F00102002AF8D0194A121F12881C
:10053000002242EA4002164B083B1A8000BF144AD0
:10054000121F128802F00202002AF8D0104A121F6D
:1005500012880F4A128800BF0D4A121F128802F03B
:100560008002002AF8D00A4A083A118000BF084ADF
:10057000121F128802F08002002AF8D0044A183AAA
:10058000128842F40072024B183B1A807047000038
:100590001854004000BFFEE7704770472DE9FC414A
:1005A000F5214020FFF7AAFF0020009002E000980C
:1005B000401C0090114900988842F8DB032201A9F1
:1005C0004020FFF77BFE9DF805009DF8041040EAEF
:1005D00001244FF6FC700440204600F027FA07463D
:1005E0004FF08F4100F060F90646054900F032FAFD
:1005F0000546044900F0F6F8BDE8FC8100350C0022
:100600000000FA420000C0C02DE9FC41F321402067
:10061000FFF774FF0020009002E00098401C00905B
:10062000114900988842F8DB032201A94020FFF716
:1006300045FE9DF805009DF8041040EA01244FF6A0
:10064000FC700440204600F0F1F907464FF08F415E
:1006500000F02AF90646054900F0FCF90546044970
:1006600000F0C0F8BDE8FC8100350C0052B82F4303
:1006700066663BC2704710B500F002F810BD00007E
:100680000CB50020019000903348006840F48030A1
:100690003149086000BF3048006800F40030009025
:1006A0000198401C0190009818B90198B0F5A06F0E
:1006B000F1D12948006800F4003010B10120009009
:1006C00001E0002000900098012843D123480068F1
:1006D00040F01000214908600846006820F007003B
:1006E00008600846006840F0020008601A48406848
:1006F000194948600846406848600846406840F428
:10070000806048600846406820F47C1048600846D5
:10071000406840F4E81048600846006840F0807087
:10072000086000BF0C48006800F000700028F9D095
:100730000948406820F003000749486008464068BF
:1007400040F00200486000BF0348406800F00C0021
:100750000828F9D10CBD0000001002400020024022
:100760007047000010B51348006840F001001149BF
:10077000086008464068104908400E49486008462D
:1007800000680E4908400B4908600846006820F4DC
:10079000802008600846406820F4FE0048604FF45E
:1007A0001F008860FFF767FF4FF000600449086092
:1007B00010BD0000001002400000FFF8FFFFF6FE31
:1007C00008ED00E000BFFEE71CB5FFF7CBFFFFF729
:1007D0002FFD05E0FFF718FF0190FFF7DFFE009007
:1007E000F8E7000090EA010F48BF81F0004100F1F6
:1007F0000482421A3CBF801A89184FEAD0524FF047
:100800007F4C1CEA410FA2EBD15318BF9CEA026F48
:1008100000F03B804FF0004C4CEA00204CEA0121F4
:1008200021FA03FC10EB0C0C1ED202F1FF325FEA3E
:100830001C2040EBC25038BF70471CF07F0F4FEABE
:10084000400C18BFBCF17F4F38BF7047C3F1200385
:10085000994008BF20F00100BCF17F4F38BF7047BE
:10086000A0F1C04000F0BDB94FEA3C00000A40EBE7
:10087000C25028BF1CF0FF0F4FEA400CE6D018BF53
:10088000BCF17F4F38BF7047EAE79CEA026F05D0A2
:1008900010EA5C0F08BF00F00040704710B500F090
:1008A0005AF900BF64FBBE3E4FF47F0C1CEAD01225
:1008B0001EBF1CEAD11392EA0C0F93EA0C0F00F052
:1008C000858090EA010F48BF42F4807240F4000C2A
:1008D00041F400002CF07F4120F07F4000B58142C0
:1008E000A2EB03020FF2081CACEB504EC0F100006B
:1008F0009EF800E04FEA4E0E00FB0EFC38BF4900A8
:100900004FEA2C1C02F5FA020CFB0EF34FEACE1E46
:100910004FEA112C4FEAC1210EEB635E42EB2242FB
:100920000EFB0CFC4FEA1C5300FB03114FEA112C89
:100930004FEA01310EFB0CFC4FEADC4C00FB0C11C2
:10094000C14228BF09184CEB03335DF804EB10EBF0
:10095000410143EBC250B2F57C0F38BF704729D537
:1009600012F0F00F1CBF00F1C04000F000407047D3
:10097000008182838485868788898B8C8D8E8F9178
:100980009293959697999A9C9D9FA0A2A3A5A7A89C
:10099000AAACAEB0B2B3B5B7B9BCBEC0C2C5C7C9C8
:1009A000CCCED1D4D7D9DCDFE2E6E9ECF0F3F7FA2C
:1009B000FE0000004FEA400C0CF1807CBCF17E4F41
:1009C00028BF7047B0F1C04000F00BB990EA010FAA
:1009D0000CEAD11348BF42F48072624538BF6345C8
:1009E00007D213F47F0F16D080EA010000F0004018
:1009F000704710B500F0AFF8097EFC3E00F005B876
:100A000080EA010000F00040704780EA010000F039
:100A1000004000F0E6B812F47F0F04BF02487047B0
:100A200080EA010000F0DDB80000C07FB0FA80F37A
:100A300010FA03F2C3F19D030AD0D90501EB12208D
:100A4000530638BF704700F1010008BF20F00100D5
:100A5000704700004FF47F0C1CEAD0121EBF1CEA46
:100A6000D11392EA0C0F93EA0C0F00F0478090EA42
:100A7000010F48BF42F480724FF0004C4CEA002056
:100A80004CEA012102EB0302A0FB0113A2F50002D4
:100A9000002918BF43F001035B0028BF4FEA33036E
:100AA00042EB22425FEA132C4CEBC2502EBFBCEB50
:100AB000436FB2F57C0F70474FEA036CBCF1004FF7
:100AC00008BF20F00100B2F57C0F38BF70470BD58E
:100AD00082F0FF0212F5803FC8BF704700F1C040AE
:100AE000D8BF00F00040704700F5000C5FEA4C0CE6
:100AF00048BF7047B0F1C04000F073B890EA010FF2
:100B00000CEAD11348BF42F48072624538BF634596
:100B100004D280EA010000F00040704710B500F0F8
:100B20001AF800BF8900013E00F007B800F009B8CC
:100B30005FEA410C5FEA1C6C08D080EA010000F01B
:100B400050B85FEA400C5FEA1C6CF6D14FF00040F1
:100B5000A0F5800070470EF1020E2EF0030E5EF835
:100B6000044B244204D44FEA4102B2F17F4F11D822
:100B70004FEA4003B3F17F4F0CD80ED14FEAD07C3F
:100B8000B2F17F4F0CEB4C0C0CF1020C08BF4CEB9C
:100B9000D17C04E04FF0080C01E04FEAD17C0CEB73
:100BA0004C0324FA03F404F00704B4F1040C06D255
:100BB0000EEB840CBDE810404CF0010C6047DFE800
:100BC0000CF0070802024FF00040A0F5800010BDB5
:100BD0000846420018BFD2F1807288BF00F0004082
:100BE00010BDFF2141EAD050C005704790EA010FC7
:100BF00048BF81F000413FF5FCAD421A04D882F0B5
:100C00000042A0EB020011444FEAD0524FF07F4C5B
:100C10001CEA410FA2EBD15318BF9CEA026F4AD0E5
:100C20004FF0004C4CEA00204CEA012121FA03FC71
:100C3000B0EB0C0C0FD412F0FE0F36D05FEA4C0074
:100C40001DD5001240EBC25038BF70471CF03F0F5B
:100C500018BF70470BE0A2F101025FEA1C2040EBD5
:100C6000C25038BF70471CF07F0F18BF7047C3F1E8
:100C70002003994014BF401E20F0010070478008F7
:100C80004FEA122308BF7047B0FA80FCA2EB0C02B7
:100C9000CCF1280C60FA0CF093EA122F04BF00EBA1
:100CA000C25070474FEAC3707047130A5FEADC1006
:100CB00008BF7047F6E79CEA026F04D010EA5C0FA9
:100CC00008BF0020704710B5FFF745FF40DFF63E34
:100CD00081F0004070470000E80C00080000002090
:080CE000600600002801000875
:04000005080000ED02
:00000001FF
