:020000040800F2
:10000000A0060020A10100083F1A000829140008DA
:100010003B1A00085B120008411E000800000000A7
:10002000000000000000000000000000711B00083C
:100030005F12000800000000411A00085D1C000863
:10004000BB010008BB010008BB010008BB010008A0
:10005000BB010008BB010008BB010008BB01000890
:10006000BB010008BB010008BB010008BB01000880
:10007000BB010008BB010008BB010008BB01000870
:10008000BB010008BB010008BB010008BB01000860
:10009000BB010008BB010008BB010008BB01000850
:1000A000BB010008BB010008BB010008BB01000840
:1000B000BB010008BB010008BB010008BB01000830
:1000C000BB010008BB010008BB010008BB01000820
:1000D000BB010008BB010008BB010008BB01000810
:1000E000BB010008BB010008BB01000800F002F8DA
:1000F00000F047F80AA090E8000C82448344AAF17B
:100100000107DA4501D100F03CF8AFF2090EBAE878
:100110000F0013F0010F18BFFB1A43F0010318473B
:100120007025000090250000103A24BF78C878C1DF
:10013000FAD8520724BF30C830C144BF04680C60ED
:10014000704700000023002400250026103A28BF35
:1001500078C1FBD8520728BF30C148BF0B60704739
:10016000662902F04882002070471FB500F038FB76
:1001700004000020002101F0EBFEE0601FBD10B57F
:1001800010BD00F02DFC1146FFF7EFFF01F08CFED3
:1001900000F04BFC03B4FFF7F2FF03BC00F08EFC51
:1001A0000948804709480047FEE7FEE7FEE7FEE70B
:1001B000FEE7FEE7FEE7FEE7FEE7FEE70448054947
:1001C000054A064B70470000611C0008ED0000085E
:1001D000A0000020A0060020A0020020A002002015
:1001E0000FB41CB50C0007AA009001D02044401E9B
:1001F000074B7B4469460190069800F0D0FA002C2A
:1002000003D06946002000F0DDFA1CBC5DF814FB49
:10021000D905000070B5044685690068C10601D59E
:10022000302600E02026C00707D070BDD4E90121A8
:1002300030469047206A401C20626D1EF6D570BD86
:1002400070B5044685690078C00707D170BDD4E950
:10025000012120209047206A401C20626D1EF6D5A7
:1002600070BD2DE9F0474FF0000A89460446C0F8FA
:1002700020A02046E1688847002876D0252806D0AF
:10028000D4E901219047206A401C2062F1E7E1682F
:10029000204600258847C4F81CA006460027C4F85D
:1002A00018A02A2E09D0304601F0E0FD38B304EB47
:1002B0008708303EC8F8186019E059F8041B20463A
:1002C00004EB87029161E1688847012F064618D147
:1002D000E069002820DA25F020051DE0D8F8180094
:1002E00000EB800006EB40003038C8F818002046CC
:1002F000E1688847064601F0B9FD0028EED1012FDC
:100300000AD02E2E08D12046E16888477F1C064679
:10031000022F45F02005C4DBA069002803DA404223
:1003200045F00105A061E80701D025F01005B6B140
:10033000A6F14100192802D8203645F400654A4646
:100340003146204625604D46FFF70AFF58B1012887
:1003500006D0ED1D25F0070000F1080989E704E04B
:1003600005F1040985E730468AE7206ABDE8F08791
:1003700070477047704770472DE9FF4F0C461E4687
:100380004FF0FF378BB0D2E90001DDF860800A90B2
:100390008A46C1F30A5505B93D46002108464FF08B
:1003A0000000BAF1000F00F4400005DA00EB800015
:1003B0004FF4400101EA50004FEA9059B9F1010FA2
:1003C00000DDB9460A9850EA4A000ED044F61050B3
:1003D000A5F2FF3545432F14B8F1000F1ED075422A
:1003E000291E1EDDC9F100021CE0B8F1010F4FF01B
:1003F000000001D0302103E0F24305E02154401C0D
:10040000B042FBDB30460022002121540B99C1F899
:100410000880C1E900200FB0BDE8F08FBD1B6D1C46
:10042000DEE74A4600DA694206A800F063FA06AB46
:1004300093E8070003AB83E8070050460A9900F0F1
:1004400044FB8DE80700A0F500501F38009003988A
:10045000002D0ADD42F21F014A460844002303A989
:100460000390684600F0ADFD09E0A0F500504A4653
:100470001F38002303A90390684600F0B7FD8DE8FC
:1004800007000004000C03D04FF0FF30410800E0EB
:100490001046B8F1000F03D00022009215461EE06E
:1004A000751E05D400F0A0F9303262556D1EF9D5E5
:1004B000B3460122084302D000227F1C04E02078CA
:1004C000302801D100227F1E002A099784D01DE028
:1004D000112D07DA00F088F9303262556D1C50EAB0
:1004E0000102F5D1084302D00098C8B10EE0002106
:1004F000681E05E0235C625C63542254401E491C64
:100500008142F7DBAB46A81B401E0990002004F88F
:100510000B000B98099AC0F80880C0E9002B7AE715
:1005200011264FF0000857E72DE9F04F88460446A2
:10053000D21D22F0070191B0D1E90001CDE90A01F5
:1005400001F080FC02460B98C00F01D02D2007E07F
:100550002068810701D52B2002E0202101EAC0009C
:10056000032A099001D0072A05DB034641462046AD
:1005700000F080F90BE12078800601D5E06900E009
:100580000620B8F1650F814606D0B8F1660F18D085
:10059000B8F1670F70D131E00020B9F1110F009070
:1005A00001DB112301E009F101030AAA01A90CA84A
:1005B000FFF7E2FEDDE90C70002609F10105834634
:1005C00047E001204B4600904FF000470AAA01A9DE
:1005D0000CA8FFF7D1FEDDE90DB00C995D460026B1
:1005E00010B909F101000D18B9EB050003D4C0F1F1
:1005F000FF3609F10105A5EB09002BE0B9F1010F68
:1006000001DA4FF001090020B9F1110F00904846BE
:1006100001DD112300E003460AAA01A90CA8FFF797
:10062000ABFEDDE90C704D460026834620780007BE
:100630000AD4AB4500DA5D4601A8012D04DD41195D
:1006400011F8011C302907D04F4502DA17F1040FC9
:1006500004DA012082460FE06D1EEEE7002F02DC77
:10066000ED1B3E4403E0781CA84200DD7D1CB81B56
:1006700000F1010A4FF000472078000703D4AA4593
:1006800001DB4FF0FF3A0021B7F1004F0DF14308B5
:100690008DF8431024D002202B23002F01DA7F4253
:1006A0002D230A21021EA0F1010000DC5FB197FB9F
:1006B000F1FC97FBF1F201FB1C7C17460CF1300CAE
:1006C00008F801CDEEE7A8F10100037021880905C3
:1006D00001D5452100E06521A0F1010800F8011CC9
:1006E00009980FA9A1EB0807FF1D00B101204119CE
:1006F00001EBEA70A1693844081A401EA061207815
:10070000C00602D42046FFF785FD099828B1D4E938
:1007100001219047206A401C20622078C00622D523
:100720002046FFF777FD1EE0002E04DBB34502DD17
:1007300001A8805D00E03020D4E901219047206AC3
:10074000401C2062761CAAF101005FEA000A0AD16F
:1007500000F046F8C0680168405CD4E90121904788
:10076000206A401C2062281EA5F10105DCDC07E0A0
:10077000D4E9012118F8010B9047206A401C20623F
:10078000381EA7F10107F3DC2046FFF759FD0320CF
:1007900011B041E601694A1C02610878704700B552
:1007A0008FB0CDE901310021059105497944CDE9AA
:1007B000031011466846FFF754FD0FB000BD00005E
:1007C000E5FFFFFF0A6802F8010B0A607047D1E9F4
:1007D00000239A4202D2531C0B6010707047000035
:1007E000004870475C00002030B5B0F10A024FEAC3
:1007F000900E71F100034EEA817EB0EB0E0061EBCA
:1008000091014FEA101E4EEA017E10EB0E0041EB03
:1008100011114FEA102E4EEA016E10EB0E0041EB63
:1008200011214FEA104E4EEA014E10EB0E0041EB43
:100830001141401841F100014FEAD00040EA4170F7
:100840004FEAD10110EB80054FEA810444EA90742D
:1008500044EB01046D1944EB0404521BA3414FF017
:10086000000348BF0A3200D530BD401C41F10001F1
:1008700030BD00002DE9F0411F4604460326016803
:10088000072A01F4006004DB08B116A505E016A5EF
:1008900003E008B115A500E015A521F010002060C7
:1008A000A069C01EA0610FB1401EA0612046FFF7E5
:1008B000B1FC4FB1D4E9012138469047206A401C71
:1008C0002062C01C206206E0206AFAE7D4E9012118
:1008D00015F8010B9047761EF8D22046FFF7B0FCC2
:1008E000BDE8F0814E414E006E616E00494E4600FB
:1008F000696E66002DE9F047814616468AB0354894
:1009000078440DC88DE80D0032487844801C03AC53
:100910000DC884E80D0041F69B300844372190FB58
:10092000F1F290FBF1F5A5F1800501FB12041B3CEF
:1009300002D56442012000E00020DFF898A0804644
:100940000027FA44AAF1BE0A0EE0E0070AD03246B8
:10095000684607EB470101230AEB810100F046FBE3
:100960008DE8070064107F1C002CEED1194F7F44E6
:10097000AE3F19E0E80715D007EB04100DF1180A97
:1009800090E80E008AE80E00C068F04201D1981984
:1009900008903246012306A903A800F027FB03AB09
:1009A00083E807006D10641C002DE3D14FF00103B4
:1009B00032466946B8F1000F03A802D000F001FBEF
:1009C00001E000F013FBC9E90001C9F808200AB0F2
:1009D000BDE8F087741D0000004870473C0000200F
:1009E0007546FFF7F9FFAE4605006946534620F00D
:1009F0000700854618B020B5FFF7E0FBBDE82040B2
:100A00004FF000064FF000074FF000084FF0000BCA
:100A100021F00701AC46ACE8C009ACE8C009ACE87D
:100A2000C009ACE8C0098D46704710B50446AFF365
:100A300000802046BDE81040FFF7ACBB4FF0013C02
:100A400050F8042B51F8043B9A4221D1A2EB0C033D
:100A5000934313EACC1317D150F8042B51F8043BFD
:100A60009A4215D1A2EB0C03934313EACC130BD19A
:100A700050F8042B51F8043B9A4209D1A2EB0C0325
:100A8000934313EACC13DBD04FF00000704700BF54
:100A9000D01A01BAB1FA81F101F0180122FA01F07D
:100AA000CB40C1F12001DBB2C0B2C01A2CFA01F375
:100AB000D11A914311EAC311E6D1704701491820B8
:100AC000ABBEFEE72600020070475FEA400C08BF9D
:100AD00091F0000F4FEA8C234FEAC12243EA5151B3
:100AE0004FEA1C5018BF00F5F0404FEA300018BF25
:100AF00041F000415FEA6C5C00F02980BCF1FF3FEF
:100B000008BF40F080407047130C06BF12044FF03E
:100B1000100C4FF0000C130E04BF12020CF1080C65
:100B2000130F04BF12010CF1040C930F04BF9200C9
:100B30000CF1020CD30F04BF52000CF1010C114652
:100B40004FF00002A0F11F00A0EB0C00704711F065
:100B5000004F08BF704731F000413FF4D5AF0B0C98
:100B600006BF09044FF0100C4FF0000C0B0E04BF31
:100B700009020CF1080C0B0F04BF09010CF1040C65
:100B80008B0F04BF89000CF1020CCB0F04BF49008E
:100B90000CF1010CCCF12003A0EB0C0022FA03F3C2
:100BA00002FA0CF241EA030100F10100704720F063
:100BB0007F4C80EA030023F07F47ACEB070303F58B
:100BC0007C5300F0004003F1FF032DE980494FEA18
:100BD000154B09B44FEA144325EA0B4E24EA0348A7
:100BE0000FF2042606EB132749083E785FEA32022B
:100BF00003FB0667C7F5000707FB06F64FEA543705
:100C00004FEAD64606F1020607FB066CCCF1005C03
:100C10004FEA1C472CEA074C07FB06F40CFB06F5D1
:100C200004EB15464FEA961634BF00204FF0004003
:100C30004FEAD13706FB07FC4FEA1C4C0CFB0BF7C5
:100C4000D21B03FB0CF761EB07010CFB0EF7B0EBBB
:100C5000074072EB17420CFB08F734BFA2EB0742C8
:100C6000B2EB074261EB17414FEA0C444FEA9107A0
:100C700006FB07FC4FEA1C4C0CFB0BF7B0EBC74024
:100C800072EB573203FB0CF734BFA2EBC742B2EB57
:100C9000C74261EB57310CFB0EF7B0EBC70072EBAC
:100CA00057720CFB08F734BFA2EBC702B2EBC702C6
:100CB00061EB5771039F4FEA816141EA921104EBA6
:100CC000CC044FEAD1374FEA826206FB07FC42EAC6
:100CD00090124FEA80604FEA1C4C0CFB0BF7D21BC2
:100CE00003FB0CF761EB07010CFB0EF7B0EB0740C1
:100CF00072EB17420CFB08F734BFA2EB0742B2EBD2
:100D0000074261EB17414FEA8C554FEA910704EB1C
:100D10009C2406FB07FC4FEA1C4C0CFB0BF7B0EBCA
:100D2000C74072EB573203FB0CF734BFA2EBC7424C
:100D3000B2EBC74261EB57310CFB0EF7B0EBC700CB
:100D400072EB57720CFB08F734BFA2EBC702B2EB91
:100D5000C70261EB577115EB4C254FEA816141EAFF
:100D600092114FEA82624FEAD13742EA901206FBB3
:100D700007FC44F100044FEA80604FEA1C4C0CFB76
:100D80000BF7D21B03FB0CF761EB07010CFB0EF713
:100D9000B0EB074072EB17420CFB08F734BFA2EB35
:100DA0000742B2EB074261EB174115EB1C154FEA06
:100DB000813141EA92414FEA823242EA90424FEA5F
:100DC00080304FEA0C7644F1000448EA03434EEACF
:100DD0000B484FF0000EB2EB080C71EB030724BF79
:100DE000624639464EEB0E0E4FF0000B0018524192
:100DF00049414BEB0B0BB2EB080C71EB03077BF19A
:100E0000000B24BF624639464EEB0E0E4FF0000B2E
:100E10000018524149414BEB0B0BB2EB080C71EB44
:100E200003077BF1000B24BF624639464EEB0E0EE2
:100E300051EA020718BF46F0010616EB0E7655F18F
:100E4000000254F1000103D5BDE88901BDE8008826
:100E5000BDE88901BDE80048B619524141EB0101E6
:100E6000A3F10103704780807F7E7D7C7B7A797857
:100E7000777676757473727171706F6E6E6D6C6C5F
:100E80006B6A6A6968686766666564646363626101
:100E90006160605F5F5E5E5D5D5C5C5B5B5A5A5982
:100EA00059585857575656555555545453535252EE
:100EB0005251515050504F4F4F4E4E4D4D4D4C4C46
:100EC0004C4B4B4B4A4A4A4949494848484747478F
:100ED00047464646454545444444444343434342CC
:100EE000424242414141002B9C4630D477002BD0F6
:100EF0001CB54FEA370703B44FF010004FF0100154
:100F0000BAF1000F06D0BCF1000FDCBF40F00800C2
:100F100040F008014FF000000FBCBDE810400BF19D
:100F2000010BBBF1010F08BF5FEA170722BF12F1E7
:100F3000010211F101014FF0004143F1000300F003
:100F4000004043EA00007047F9D35708D0E746EA6B
:100F5000064613F1400F4FEA16461FDD13F1200F2E
:100F6000DFBF16430A46002120335B42BED0C3F1E7
:100F7000200746EA064602FA07F74FEA164646EA0F
:100F80000706C3F1200722FA03F201FA07F721FA54
:100F900003F14FF0000342EA0702A7E746EA020620
:100FA00046EA06464FEA164646EA0106BCBF46EA4E
:100FB0000646360C4FF000034FF000024FF00001E0
:100FC00094E72DE9804C9A46934670B491E8380036
:100FD00007C831EA400C48BF34EA430C03D5FFF799
:100FE000E6FDFFF780FFF0BCBDE8008C2DE9804CEA
:100FF0009A46934670B491E8380007C810F0804FC5
:1010000008BF13F0804F03D100F005F8FFF76BFF26
:10101000F0BCBDE8008C20F07F4780EA030023F09D
:101020007F4C07EB0C03A3F57C5300F00040A3F1C9
:10103000FE0392F0000F00F0B38095F0000F00F077
:1010400077802DE901494FEA11404FEA144621EA21
:10105000004800FB06FC24EA064708FB06F607FBEF
:1010600008F800FB07F718EB06484CEB164C4FEA64
:10107000124B18EB07484FEA15464CEB174022EA93
:101080000B4E0BFB06FC25EA06470EFB06F607FB9C
:101090000EFE0BFB07F71EEB064E4CEB164C4FF00B
:1010A00000061EEB074E4CEB174B18EB0B0840F1FC
:1010B000000018EB0E0B58EB000840F100008F1AEF
:1010C0004FF000013CBFC943661B14BFB5EB040CD5
:1010D00000213CBFC943F61B4FEA17444EEA8E0E6F
:1010E00027EA04454FEA1C4704FB07622CEA074C39
:1010F00005FB07F70CFB05F604FB0CFC16EB07469B
:1011000042EB174216EB0C4642EB1C421BEB060669
:1011100058EB0202414146EA9E0601D5BDE801892D
:10112000B619524141EB0101A3F10103BDE8018968
:101130004FEA14454FEA114724EA054621EA074CD5
:1011400005FB07F406FB07F70CFB06F105FB0CFC9F
:1011500011EB074144EB17444FEA124711EB0C41E6
:1011600044EB1C4422EA074C05FB07F206FB07F799
:101170000CFB06F605FB0CFC16EB074642EB174290
:1011800016EB0C4642EB1C456A1854F1000148BFAF
:101190007047B619524141EB0101A3F101037047B9
:1011A00095F0000F37D04FEA11424FEA144721EA79
:1011B000024624EA074C02FB07F106FB07F70CFB8B
:1011C00006F402FB0CFC14EB074441EB17414FEA19
:1011D000154714EB0C4441EB1C4125EA074C02FB7C
:1011E00007F506FB07F70CFB06F602FB0CFC16EBFB
:1011F000074645EB174516EB0C4645EB1C4212190A
:1012000051F1000148BF7047B619524141EB01014D
:10121000A3F1010370474FEA14454FEA114724EA4E
:10122000054621EA074C05FB07F106FB07F70CFB17
:1012300006F24FF0000605FB0CFC12EB074241EBF7
:10124000174112EB0C4251EB1C4148BF70479218FA
:1012500041EB0101A3F10103704700BFFEE77047B6
:1012600008B54020ADF8000018208DF803000320D9
:101270008DF802006946024800F004F808BD00003D
:10128000000801402DE9F04102460025002600201B
:1012900000230024002791F803C00CF00F0591F8FB
:1012A00003C00CF0100CBCF1000F03D091F802C089
:1012B0004CEA050591F800C0BCF1000F31D014686C
:1012C00000202BE04FF0010C0CFA00F3B1F800C045
:1012D0000CEA03069E4220D183004FF00F0C0CFA5B
:1012E00003F7BC4305FA03FC4CEA040491F803C07D
:1012F000BCF1280F06D14FF0010C0CFA00FCC2F82B
:1013000014C00AE091F803C0BCF1480F05D14FF0BA
:10131000010C0CFA00FCC2F810C0401C0828D1D304
:101320001460B1F800C0BCF1FF0F34DD5468002038
:101330002EE000F1080C4FF0010808FA0CF3B1F8A8
:1013400000C00CEA03069E4221D183004FF00F0C2F
:101350000CFA03F7BC4305FA03FC4CEA040491F8C9
:1013600003C0BCF1280F05D100F1080C08FA0CF8F5
:10137000C2F8148091F803C0BCF1480F07D100F106
:10138000080C4FF0010808FA0CF8C2F81080401C55
:101390000828CED35460BDE8F081000010B500F0FD
:1013A00071FBFFF75DFF194800681949B0FBF1F0C8
:1013B000401E18490880084600881749088044F6EE
:1013C0001F6088800020C8804880144800F0E6FC38
:1013D000602013490880012048801248006800F00E
:1013E0002FFF0F49C880002008810C4800F080FCC6
:1013F00008210A4800F0C8FC0121084800F060FC00
:101400000121064800F068FC10BD0000000000202B
:1014100040420F0014000020200000200004004083
:101420002A0000201800002000BFFEE71E48806947
:1014300040F009001C4988610846C06940F400106A
:10144000C8611A48006820F07F40184908600846C3
:10145000006840F07F4008601548406820F00200B6
:10146000134948601348008820F0010011490880A2
:101470000846008840F4004008800846008820F4B0
:10148000004008802420091D0880B42009491C312F
:1014900008802520091D08800648008840F00100CA
:1014A000044908807047000000100240000C014011
:1014B000000001400054004000BF214A128802F0A1
:1014C0000202002AF9D11E4A183A128842F48072A8
:1014D0001B4B183B1A8000BF194A121F128802F0DA
:1014E0000102002AF8D04200154B083B1A8000BFC9
:1014F000134A121F128802F00202002AF8D0104A82
:10150000121F12880E4A128800BF0D4A121F12883D
:1015100002F08002002AF8D0094A083A118000BF80
:10152000074A121F128802F00402002AF8D0044A67
:10153000183A128842F40072014B183B1A80704727
:101540001854004038B50346012404EB4304E0B2CC
:10155000012A45D100BF8A4C248804F00204002CE3
:10156000F9D1874C183C248824F48064844D183DBC
:101570002C802C46248844F480742C8000BF804C3E
:10158000241F248804F00104002CF8D07C4C241F74
:1015900024887B4C083C208000BF794C241F248881
:1015A00004F00204002CF8D0754C241F2488009409
:1015B000734C24880094724C183C248844F40074C2
:1015C0006F4D183D2C8000BF6D4C241F248804F003
:1015D0004004002CF8D06A4C083C24880C7038BDBC
:1015E000022A53D100BF664C248804F00204002C68
:1015F000F9D1634C183C248824F48064604D183D74
:101600002C802C46248844F400642C802C462488AA
:1016100044F480742C8000BF594C241F248804F0AB
:101620000104002CF8D0564C241F2488544C083C4C
:10163000208000BF524C241F248804F00204002C98
:10164000F8D04F4C241F248800944D4C24880094DB
:1016500000BF4B4C241F248804F00404002CF8D055
:10166000474C183C248844F40074454D183D2C80A8
:10167000434C083C24880C70414C083C24884C7036
:101680002C46248824F400642C80A8E700BF3C4C3E
:10169000248804F00204002CF9D1394C183C248829
:1016A00044F48064364D183D2C802C46248844F444
:1016B00080742C8000BF324C241F248804F0010465
:1016C000002CF8D02E4C241F24882D4C083C208060
:1016D00000BF2B4C241F248804F00204002CF8D0F7
:1016E000274C241F24880094254C248800940EE065
:1016F00000BF234C241F248804F04004002CF8D0A1
:101700001F4C083C248801F8014B541EA2B2032A46
:10171000EEDC00BF1A4C241F248804F00404002CC3
:10172000F8D0174C183C248824F48064144D183DDC
:101730002C80134C083C248801F8014B2C4624884B
:1017400044F400742C8000BF0D4C241F248804F046
:101750004004002CF8D00A4C083C248801F8014BC6
:1017600000BF074C241F248804F04004002CF8D04C
:10177000034C083C248801F8014B00BF2FE7000010
:10178000185800401848806940F0090016498861DF
:101790000846C06940F48000C8611448006820F41D
:1017A0007F40124908600846006840F47F400860A6
:1017B0000F48008840F400400D4908800846008822
:1017C00020F4004008802420091D0880B420084926
:1017D0001C3108802520091D08800548008840F03C
:1017E000010003490880704700100240040C0140CA
:1017F0000058004000BF294A128802F00202002A65
:10180000F9D1264A183A128842F48072234B183BC9
:101810001A8000BF214A121F128802F00102002A1A
:10182000F8D01E4A121F12881C4A1288002242EA6F
:1018300040021A4B083B1A8000BF184A121F128838
:1018400002F00202002AF8D0144A121F1288134A2A
:10185000128800BF114A121F128802F08002002A6B
:10186000F8D00E4A083A118000BF0C4A121F1288A5
:1018700002F08002002AF8D000BF084A121F128826
:1018800002F00402002AF8D0044A183A128842F4FE
:101890000072024B183B1A80704700001858004035
:1018A00010B5012000F089F8022000F0E6FA10BD22
:1018B00010B5FFF7BBFD322000F0DFFA0021302029
:1018C00000F08AF80A2000F0D8FA0021302000F059
:1018D00083F8012000F0D1FA0021302000F07CF8DC
:1018E000012000F0CAFA0021202000F075F8012044
:1018F00000F0C3FA282000F060F8082000F05DF83E
:10190000FFF7CEFF062000F058F80C2000F055F845
:1019100010BD10B5044603E014F8010B00F054F8B4
:1019200020780028F8D110BDF0B587B005460C46E8
:101930000021084600F072F8284600F025FB0EA2B0
:10194000CDE90001112102A8FEF74AFC02A8FFF729
:10195000E0FF0021012000F061F8204600F014FBB8
:1019600009A2CDE90001112102A8FEF739FC02A865
:10197000FFF7CFFF07B0F0BD543A2025352E316672
:101980002043202020202000483A2025352E316693
:1019900020252520202020200000000070B50446CE
:1019A0000D4604F0F000294600F016F8F02101EA97
:1019B0000410294600F010F870BD10B5044600214F
:1019C0002046FFF7EBFF10BD10B50446012120466D
:1019D000FFF7E4FF10BD000070B505460E46002479
:1019E00005F0F0040EB144F001040B480078044304
:1019F00044F0040421462720FFF75EFD052000F097
:101A000048FA24F0040421462720FFF755FD322030
:101A100000F03FFA70BD00001C00002070B50446C5
:101A20000D460CB9002000E0402006467019C6B2F1
:101A300046F08000FFF7C1FF70BD00BFFEE77047B2
:101A40007047000029B1064AD2690243044BDA61AB
:101A500004E0034AD2698243014BDA617047000017
:101A60000010024029B1064A92690243044B9A6170
:101A700004E0034A92698243014B9A617047000077
:101A80000010024010B501210220FFF7DBFF012109
:101A90000520FFF7E7FF10BD2DE9FC41F5214020AF
:101AA000FFF7A8FE0020009002E00098401C009084
:101AB000114900988842F8DB032201A94020FFF772
:101AC00041FD9DF805009DF8041040EA01244FF601
:101AD000FC700440204600F0D3FB07464FF08F41D6
:101AE00000F0ECFA0646054900F012FC05460449F0
:101AF00000F076FABDE8FC8100350C000000FA42E7
:101B00000000C0C02DE9FC41F3214020FFF772FE28
:101B10000020009002E00098401C009011490098BD
:101B20008842F8DB032201A94020FFF70BFD9DF856
:101B300005009DF8041040EA01244FF6FC700440B3
:101B4000204600F09DFB07464FF08F4100F0B6FAAB
:101B50000646054900F0DCFB0546044900F040FA62
:101B6000BDE8FC8100350C0052B82F4366663BC2CD
:101B7000704710B500F002F810BD00000CB5002051
:101B8000019000903348006840F48030314908608B
:101B900000BF3048006800F4003000900198401CFD
:101BA0000190009818B90198B0F5A06FF1D12948BB
:101BB000006800F4003010B10120009001E0002026
:101BC00000900098012843D12348006840F010009D
:101BD000214908600846006820F0070008600846B0
:101BE000006840F0020008601A48406819494860DF
:101BF0000846406848600846406840F48060486095
:101C00000846406820F47C1048600846406840F46C
:101C1000E81048600846006840F08070086000BF27
:101C20000C48006800F000700028F9D009484068AE
:101C300020F00300074948600846406840F0020071
:101C4000486000BF0348406800F00C000828F9D144
:101C50000CBD000000100240002002407047000050
:101C600010B51348006840F00100114908600846AB
:101C70004068104908400E494860084600680E490F
:101C800008400B4908600846006820F4802008607E
:101C90000846406820F4FE0048604FF41F0088604A
:101CA000FFF767FF4FF000600449086010BD0000B7
:101CB000001002400000FFF8FFFFF6FE08ED00E014
:101CC00021B1028842F08002028004E002884FF6CF
:101CD0007F731A400280704721B1028842F00102EE
:101CE000028004E002884FF6FE731A4002807047BB
:101CF00070B5002400220023058C4FF6FE76354097
:101D00000584028C8388048B4FF68F752C40B51E9A
:101D10002C400D882C43751E2A400D892A434D887E
:101D20002A43144DA8420BD0134DA84208D0134D9E
:101D3000A84205D0124DA84202D0124DA84213D19C
:101D40004FF6F7752A404D892A434FF6FB752A4016
:101D50008D882A434FF6FF652B404FF6FF552B40E9
:101D60008D892B43CD892B4383800483CD88858641
:101D7000028470BD002C014000340140004001404D
:101D800000440140004801400A460021018B4FF603
:101D9000F773194011430183704700000022028845
:101DA0001D4B98420ED01D4B98420BD0B0F1804F86
:101DB00008D01B4B984205D01A4B984202D01A4BC0
:101DC000984204D14FF68F731A404B881A43174B31
:101DD000984207D0164B984204D04FF6FF431A4062
:101DE000CB881A4302808B8883850B8803850A4B36
:101DF00098420BD0094B984208D00E4B984205D020
:101E00000D4B984202D00D4B984201D10B7A0386BC
:101E10000123838270470000002C01400034014000
:101E20000004004000080040000C0040001000408A
:101E300000140040004001400044014000480140BF
:101E400000BFFEE7490050EAC12018BF04204A0D38
:101E500018BF40F0010040F2FF72B2EB515F08BFC3
:101E600040F00200012808BF0520704730380A28DA
:101E700001D2012070470020704710B5044603E0EE
:101E80004FF47A7000F005F8201EA4F10104F7D198
:101E900010BD00EB4001880000E000BF011EA0F172
:101EA0000100FAD1704700000EB5FFF777FAFFF78F
:101EB00069FCFFF7FDFC0020029001904FF47A705E
:101EC000009031E0FFF71EFE0290FFF7E5FD019064
:101ED000DDE90110FFF728FD1449029800F0E4FA4B
:101EE00008D81349029800F0DFF903D240F24C40C1
:101EF00000900BE00E49029800F0D6FA03D84FF498
:101F00009660009002E04FF47A70009009490298C0
:101F100000F0CAFA04D8FFF7C3FC07A0FFF7F9FCEA
:101F2000BDF8000009490880CCE700000000F0413E
:101F3000000004420000A0424572726F723A2054C1
:101F4000656D702048696768000000003404004037
:101F500010B500290AD00878002807D00548784431
:101F6000FEF76CFD002801D0002010BD0248784427
:101F700010BD0000520700004A0700000808A0F545
:101F800000114FEA3101704743004FEAD30C4FEA8A
:101F90003C0C43401FBF40070CF1605113F0FE4F53
:101FA00070471CF0006F03D100200CF00041704717
:101FB0000CF0004343EA507010B540EACC0000F04A
:101FC00028FA00BF000000924FEA0001FFF7D6BFD9
:101FD0004FF000414FF00000A1F5002170470000D4
:101FE00090EA010F48BF81F0004100F19682421A49
:101FF0003CBF801A89184FEAD0524FF07F4C1CEA40
:10200000410FA2EBD15318BF9CEA026F00F03B8056
:102010004FF0004C4CEA00204CEA012121FA03FC6D
:1020200010EB0C0C1ED202F1FF325FEA1C2040EBD9
:10203000C25038BF70471CF07F0F4FEA400C18BFEA
:10204000BCF17F4F38BF7047C3F12003994008BFF0
:1020500020F00100BCF17F4F38BF7047A0F1C040B5
:1020600000F01DBA4FEA3C00000A40EBC25028BF06
:102070001CF0FF0F4FEA400CE6D018BFBCF17F4FB9
:1020800038BF7047EAE79CEA026F05D010EA5C0FA0
:1020900008BF00F00040704710B500F0BAF900BF6B
:1020A00064FBBE3E401058BFC0F14040491058BFCD
:1020B000C1F140418142EFF3008070474FF47F0C43
:1020C0001CEAD0121EBF1CEAD11392EA0C0F93EA4D
:1020D0000C0F00F0858090EA010F48BF42F4807237
:1020E00040F4000C41F400002CF07F4120F07F40D0
:1020F00000B58142A2EB03020FF2081CACEB504E7C
:10210000C0F100009EF800E04FEA4E0E00FB0EFC0E
:1021100038BF49004FEA2C1C02F5FA020CFB0EF303
:102120004FEACE1E4FEA112C4FEAC1210EEB635E3F
:1021300042EB22420EFB0CFC4FEA1C5300FB031146
:102140004FEA112C4FEA01310EFB0CFC4FEADC4C3C
:1021500000FB0C11C14228BF09184CEB03335DF89A
:1021600004EB10EB410143EBC250B2F57C0F38BFDA
:10217000704729D512F0F00F1CBF00F1C04000F0ED
:1021800000407047008182838485868788898B8C94
:102190008D8E8F919293959697999A9C9D9FA0A2D0
:1021A000A3A5A7A8AAACAEB0B2B3B5B7B9BCBEC020
:1021B000C2C5C7C9CCCED1D4D7D9DCDFE2E6E9ECC1
:1021C000F0F3F7FAFE0000004FEA400C0CF1807CBF
:1021D000BCF17E4F28BF7047B0F1C04000F05FB93E
:1021E00090EA010F0CEAD11348BF42F480726245B5
:1021F00038BF634507D213F47F0F16D080EA010081
:1022000000F00040704710B500F003F9097EFC3E75
:1022100000F005B880EA010000F00040704780EA55
:10222000010000F0004000F03AB912F47F0F04BF43
:102230000248704780EA010000F031B90000C07F19
:10224000C10DD1F19E0206DB4FEA002343F00043AB
:1022500023FA02F07047004207D54FEA4001B1F17E
:10226000FE4F02D24FF00000704710B500F0D1F8D9
:1022700049922480002070476FEA200070470000D8
:10228000B0FA80F310FA03F2C3F19D030AD0D90526
:1022900001EB1220530638BF704700F1010008BF60
:1022A00020F001007047000050EA010C00F113809B
:1022B0001CF5000F58BFBCF5000F01D488427047D1
:1022C00007D710F5000F58BF11F5000F15D488423D
:1022D0007047894270471CF5000F04D5BCF5000F0C
:1022E000F7D5814270474FF0807C1CEB400F38BF20
:1022F0001CEB410F01D28142704710B500F089F804
:10230000922449004FF000504FF08051FFF7CABEB1
:102310004FF47F0C1CEAD0121EBF1CEAD11392EAC4
:102320000C0F93EA0C0F00F0478090EA010F48BFB2
:1023300042F480724FF0004C4CEA00204CEA01213C
:1023400002EB0302A0FB0113A2F50002002918BF53
:1023500043F001035B0028BF4FEA330342EB224204
:102360005FEA132C4CEBC2502EBFBCEB436FB2F5AF
:102370007C0F70474FEA036CBCF1004F08BF20F0A0
:102380000100B2F57C0F38BF70470BD582F0FF0219
:1023900012F5803FC8BF704700F1C040D8BF00F0C1
:1023A0000040704700F5000C5FEA4C0C48BF7047D6
:1023B000B0F1C04000F073B890EA010F0CEAD113FD
:1023C00048BF42F48072624538BF634504D280EA58
:1023D000010000F00040704710B500F01AF800BF8F
:1023E0008900013E00F007B800F009B85FEA410C2F
:1023F0005FEA1C6C08D080EA010000F050B85FEA88
:10240000400C5FEA1C6CF6D14FF00040A0F5800054
:1024100070470EF1020E2EF0030E5EF8044B2442BC
:1024200004D44FEA4102B2F17F4F11D84FEA400382
:10243000B3F17F4F0CD80ED14FEAD07CB2F17F4F71
:102440000CEB4C0C0CF1020C08BF4CEBD17C04E003
:102450004FF0080C01E04FEAD17C0CEB4C0324FA5E
:1024600003F404F00704B4F1040C06D20EEB840C60
:10247000BDE810404CF0010C6047DFE80CF00708A5
:1024800002024FF00040A0F5800010BD0846420057
:1024900018BFD2F1807288BF00F0004010BDFF214C
:1024A00041EAD050C005704751EA000C00F113809A
:1024B0001CF5000F58BFBCF5000F01D481427047D6
:1024C00007D711F5000F58BF10F5000F15D4814242
:1024D0007047894270471CF5000F04D5BCF5000F0A
:1024E000F7D5884270474FF0807C1CEB410F38BF16
:1024F0001CEB400F01D28842704780EA010081EA5C
:10250000000180EA0100FFF7F8BE000090EA010F29
:1025100048BF81F000413FF56AAD421A04D882F00D
:102520000042A0EB020011444FEAD0524FF07F4C22
:102530001CEA410FA2EBD15318BF9CEA026F4AD0AC
:102540004FF0004C4CEA00204CEA012121FA03FC38
:10255000B0EB0C0C0FD412F0FE0F36D05FEA4C003B
:102560001DD5001240EBC25038BF70471CF03F0F22
:1025700018BF70470BE0A2F101025FEA1C2040EB9C
:10258000C25038BF70471CF07F0F18BF7047C3F1AF
:102590002003994014BF401E20F0010070478008BE
:1025A0004FEA122308BF7047B0FA80FCA2EB0C027E
:1025B000CCF1280C60FA0CF093EA122F04BF00EB68
:1025C000C25070474FEAC3707047130A5FEADC10CD
:1025D00008BF7047F6E79CEA026F04D010EA5C0F70
:1025E00008BF0020704710B5FFF713FF40DFF63E2D
:1025F00081F000407047FDF797BF000002400000E7
:10260000000000A00000000005400000000000C81D
:10261000000000000C4000000000409C0000000092
:10262000194000000020BCBE000000003440000043
:10263000BFC91B8E00000004B5400000504BCFD036
:102640006607E2CF010000006C4100003E8251AA03
:10265000DFEEA73401000000D9420000DCB5A0E2A3
:102660003A301F97FFFFFFFFB4450000FD25A0C8CB
:10267000E9A3C14FFFFFFFFFFF3F00000000008004
:1026800000000000FF3F000000000080000000008C
:10269000CC260008000000202000000028010008CF
:1026A000EC260008200000208006000044010008FD
:1026B0001C00000043000000F8FFFFFF0C000000BA
:1026C0000E0000000F0000002E00000000A24A04CF
:1026D00000000000000000000102030406070809D2
:0C26E000000000000000000008000000E6
:04000005080000ED02
:00000001FF
